{
  "contractName": "ChambauCoinSale",
  "abi": [
    {
      "inputs": [
        {
          "internalType": "contract ChambauCoin",
          "name": "_tokenContract",
          "type": "address"
        },
        {
          "internalType": "uint256",
          "name": "_tokenPrice",
          "type": "uint256"
        }
      ],
      "payable": false,
      "stateMutability": "nonpayable",
      "type": "constructor"
    },
    {
      "anonymous": false,
      "inputs": [
        {
          "indexed": true,
          "internalType": "address",
          "name": "_buyer",
          "type": "address"
        },
        {
          "indexed": false,
          "internalType": "uint256",
          "name": "_value",
          "type": "uint256"
        }
      ],
      "name": "Sell",
      "type": "event"
    },
    {
      "constant": true,
      "inputs": [],
      "name": "tokenContract",
      "outputs": [
        {
          "internalType": "contract ChambauCoin",
          "name": "",
          "type": "address"
        }
      ],
      "payable": false,
      "stateMutability": "view",
      "type": "function"
    },
    {
      "constant": true,
      "inputs": [],
      "name": "tokenPrice",
      "outputs": [
        {
          "internalType": "uint256",
          "name": "",
          "type": "uint256"
        }
      ],
      "payable": false,
      "stateMutability": "view",
      "type": "function"
    },
    {
      "constant": true,
      "inputs": [],
      "name": "tokenSold",
      "outputs": [
        {
          "internalType": "uint256",
          "name": "",
          "type": "uint256"
        }
      ],
      "payable": false,
      "stateMutability": "view",
      "type": "function"
    },
    {
      "constant": false,
      "inputs": [
        {
          "internalType": "uint256",
          "name": "_numberOfTokens",
          "type": "uint256"
        }
      ],
      "name": "buyTokens",
      "outputs": [
        {
          "internalType": "bool",
          "name": "success",
          "type": "bool"
        }
      ],
      "payable": true,
      "stateMutability": "payable",
      "type": "function"
    },
    {
      "constant": false,
      "inputs": [],
      "name": "endSale",
      "outputs": [],
      "payable": false,
      "stateMutability": "nonpayable",
      "type": "function"
    }
  ],
  "bytecode": "0x608060405234801561001057600080fd5b506040516109623803806109628339818101604052604081101561003357600080fd5b810190808051906020019092919080519060200190929190505050336000806101000a81548173ffffffffffffffffffffffffffffffffffffffff021916908373ffffffffffffffffffffffffffffffffffffffff16021790555081600160006101000a81548173ffffffffffffffffffffffffffffffffffffffff021916908373ffffffffffffffffffffffffffffffffffffffff16021790555080600281905550505061087b806100e76000396000f3fe60806040526004361061004a5760003560e01c80633610724e1461004f578063380d831b14610095578063519ee19e146100ac57806355a373d6146100d75780637ff9b5961461012e575b600080fd5b61007b6004803603602081101561006557600080fd5b8101908080359060200190929190505050610159565b604051808215151515815260200191505060405180910390f35b3480156100a157600080fd5b506100aa6104d7565b005b3480156100b857600080fd5b506100c16107ba565b6040518082815260200191505060405180910390f35b3480156100e357600080fd5b506100ec6107c0565b604051808273ffffffffffffffffffffffffffffffffffffffff1673ffffffffffffffffffffffffffffffffffffffff16815260200191505060405180910390f35b34801561013a57600080fd5b506101436107e6565b6040518082815260200191505060405180910390f35b6000610167826002546107ec565b610175346305f5e1006107ec565b146101cb576040517f08c379a000000000000000000000000000000000000000000000000000000000815260040180806020018281038252602e815260200180610819602e913960400191505060405180910390fd5b81600160009054906101000a900473ffffffffffffffffffffffffffffffffffffffff1673ffffffffffffffffffffffffffffffffffffffff166370a08231306040518263ffffffff1660e01b8152600401808273ffffffffffffffffffffffffffffffffffffffff1673ffffffffffffffffffffffffffffffffffffffff16815260200191505060206040518083038186803b15801561026b57600080fd5b505afa15801561027f573d6000803e3d6000fd5b505050506040513d602081101561029557600080fd5b8101908080519060200190929190505050101561031a576040517f08c379a000000000000000000000000000000000000000000000000000000000815260040180806020018281038252601c8152602001807f7265766572742c2062616c616e636520696e73756666696369656e740000000081525060200191505060405180910390fd5b600160009054906101000a900473ffffffffffffffffffffffffffffffffffffffff1673ffffffffffffffffffffffffffffffffffffffff1663a9059cbb33846040518363ffffffff1660e01b8152600401808373ffffffffffffffffffffffffffffffffffffffff1673ffffffffffffffffffffffffffffffffffffffff16815260200182815260200192505050602060405180830381600087803b1580156103c357600080fd5b505af11580156103d7573d6000803e3d6000fd5b505050506040513d60208110156103ed57600080fd5b8101908080519060200190929190505050610470576040517f08c379a00000000000000000000000000000000000000000000000000000000081526004018080602001828103825260178152602001807f7265766572742c207472616e73666572206661696c656400000000000000000081525060200191505060405180910390fd5b816003600082825401925050819055503373ffffffffffffffffffffffffffffffffffffffff167f5e5e995ce3133561afceaa51a9a154d5db228cd7525d34df5185582c18d3df09836040518082815260200191505060405180910390a260019050919050565b6000809054906101000a900473ffffffffffffffffffffffffffffffffffffffff1673ffffffffffffffffffffffffffffffffffffffff163373ffffffffffffffffffffffffffffffffffffffff161461053057600080fd5b600160009054906101000a900473ffffffffffffffffffffffffffffffffffffffff1673ffffffffffffffffffffffffffffffffffffffff1663a9059cbb6000809054906101000a900473ffffffffffffffffffffffffffffffffffffffff16600160009054906101000a900473ffffffffffffffffffffffffffffffffffffffff1673ffffffffffffffffffffffffffffffffffffffff166370a08231306040518263ffffffff1660e01b8152600401808273ffffffffffffffffffffffffffffffffffffffff1673ffffffffffffffffffffffffffffffffffffffff16815260200191505060206040518083038186803b15801561062f57600080fd5b505afa158015610643573d6000803e3d6000fd5b505050506040513d602081101561065957600080fd5b81019080805190602001909291905050506040518363ffffffff1660e01b8152600401808373ffffffffffffffffffffffffffffffffffffffff1673ffffffffffffffffffffffffffffffffffffffff16815260200182815260200192505050602060405180830381600087803b1580156106d357600080fd5b505af11580156106e7573d6000803e3d6000fd5b505050506040513d60208110156106fd57600080fd5b8101908080519060200190929190505050610780576040517f08c379a00000000000000000000000000000000000000000000000000000000081526004018080602001828103825260178152602001807f7265766572742c207472616e73666572206661696c656400000000000000000081525060200191505060405180910390fd5b6000809054906101000a900473ffffffffffffffffffffffffffffffffffffffff1673ffffffffffffffffffffffffffffffffffffffff16ff5b60035481565b600160009054906101000a900473ffffffffffffffffffffffffffffffffffffffff1681565b60025481565b600080821480610809575082828385029250828161080657fe5b04145b61081257600080fd5b9291505056fe7265766572742c2076616c7565206e6f7420657175616c20746f20746f6b656e73202a20746f6b656e5072696365a265627a7a723158203aa168ee7ac6215f9bbfd3ec2bdfc220b93ac0dd4aeac22d417f29227e801dbd64736f6c63430005100032",
  "source": "// SPDX-License-Identifier: MIT\r\npragma solidity >=0.4.22 <0.8.0;\r\n\r\nimport './ChambauCoin.sol';\r\n\r\ncontract ChambauCoinSale {\r\n  address payable admin;\r\n  ChambauCoin public tokenContract;\r\n  uint256 public tokenPrice;\r\n  uint256 public tokenSold;\r\n\r\n  event Sell(address indexed _buyer, uint256 _value);\r\n\r\n  constructor(ChambauCoin _tokenContract, uint256 _tokenPrice) public {\r\n    admin = msg.sender;\r\n    tokenContract = _tokenContract;\r\n    tokenPrice = _tokenPrice;\r\n  }\r\n\r\n  function multiply(uint256 x, uint256 y) internal pure returns (uint256 z) {\r\n    require(y == 0 || (z = x * y) / y == x);\r\n  }\r\n\r\n  function buyTokens(uint256 _numberOfTokens) public payable returns (bool success) {\r\n    require(multiply(msg.value, 100000000) == multiply(_numberOfTokens, tokenPrice), 'revert, value not equal to tokens * tokenPrice'); // TODO : Test that\r\n    require(tokenContract.balanceOf(address(this)) >= _numberOfTokens, 'revert, balance insufficient'); // TODO : Test this\r\n    require(tokenContract.transfer(msg.sender, _numberOfTokens), 'revert, transfer failed'); // TODO : Test this\r\n\r\n    tokenSold += _numberOfTokens;\r\n    emit Sell(msg.sender, _numberOfTokens);\r\n\r\n    return true;\r\n  }\r\n\r\n  function endSale() public {\r\n    require(msg.sender == admin);\r\n    require(tokenContract.transfer(admin, tokenContract.balanceOf(address(this))), 'revert, transfer failed'); // TODO : Test this\r\n    selfdestruct(admin);\r\n  }\r\n}\r\n",
  "sourcePath": "C:/Users/antoi/Desktop/chambaucoin/contracts/ChambauCoinSale.sol",
  "compiler": {
    "name": "solc",
    "version": "0.5.16+commit.9c3226ce.Emscripten.clang"
  },
  "schemaVersion": "3.3.1",
  "updatedAt": "2020-11-01T21:56:47.408Z",
  "networkType": "ethereum",
  "devdoc": {
    "methods": {}
  },
  "userdoc": {
    "methods": {}
  }
}